{
    "contractName": "Vote",
    "abi": [
        {
            "inputs": [],
            "stateMutability": "nonpayable",
            "type": "constructor"
        },
        {
            "anonymous": false,
            "inputs": [
                {
                    "indexed": false,
                    "internalType": "string",
                    "name": "name",
                    "type": "string"
                }
            ],
            "name": "AddCandidator",
            "type": "event"
        },
        {
            "anonymous": false,
            "inputs": [
                {
                    "indexed": false,
                    "internalType": "bool",
                    "name": "live",
                    "type": "bool"
                }
            ],
            "name": "FinishVote",
            "type": "event"
        },
        {
            "anonymous": false,
            "inputs": [
                {
                    "indexed": false,
                    "internalType": "string",
                    "name": "candidator",
                    "type": "string"
                },
                {
                    "indexed": false,
                    "internalType": "uint256",
                    "name": "upVote",
                    "type": "uint256"
                }
            ],
            "name": "UpVote",
            "type": "event"
        },
        {
            "anonymous": false,
            "inputs": [
                {
                    "indexed": false,
                    "internalType": "address",
                    "name": "owner",
                    "type": "address"
                }
            ],
            "name": "Voting",
            "type": "event"
        },
        {
            "inputs": [
                {
                    "internalType": "string",
                    "name": "_name",
                    "type": "string"
                }
            ],
            "name": "addCandidator",
            "outputs": [],
            "stateMutability": "nonpayable",
            "type": "function"
        },
        {
            "inputs": [
                {
                    "internalType": "uint256",
                    "name": "",
                    "type": "uint256"
                }
            ],
            "name": "candidatorList",
            "outputs": [
                {
                    "internalType": "string",
                    "name": "name",
                    "type": "string"
                },
                {
                    "internalType": "uint256",
                    "name": "upVote",
                    "type": "uint256"
                }
            ],
            "stateMutability": "view",
            "type": "function"
        },
        {
            "inputs": [],
            "name": "finishVote",
            "outputs": [],
            "stateMutability": "nonpayable",
            "type": "function"
        },
        {
            "inputs": [
                {
                    "internalType": "uint256",
                    "name": "_indexOfCandidator",
                    "type": "uint256"
                }
            ],
            "name": "upVote",
            "outputs": [],
            "stateMutability": "nonpayable",
            "type": "function"
        }
    ],
    "bytecode": "608060405234801561001057600080fd5b506000805460ff19610100338102610100600160a81b031990931692909217166001179182905560408051919092046001600160a01b0316815290517f6d41258e44d7ee79f697248fbce67e06508f6c2a56396009d98f28c105d43e959181900360200190a1610665806100856000396000f3fe608060405234801561001057600080fd5b506004361061004c5760003560e01c80632aebcbb614610051578063b54339231461005b578063cea50510146100f7578063ec859db51461019d575b600080fd5b6100596101ba565b005b6100786004803603602081101561007157600080fd5b5035610228565b6040518080602001838152602001828103825284818151815260200191508051906020019080838360005b838110156100bb5781810151838201526020016100a3565b50505050905090810190601f1680156100e85780820380516001836020036101000a031916815260200191505b50935050505060405180910390f35b6100596004803603602081101561010d57600080fd5b81019060208101813564010000000081111561012857600080fd5b82018360208201111561013a57600080fd5b8035906020019184600183028401116401000000008311171561015c57600080fd5b91908080601f0160208091040260200160405190810160405280939291908181526020018383808284376000920191909152509295506102db945050505050565b610059600480360360208110156101b357600080fd5b5035610419565b60005461010090046001600160a01b031633146101d657600080fd5b60005460ff1615156001146101ea57600080fd5b6000805460ff1916815560408051918252517f52a1f86df561bcdc915e07aafb957e1253d4464fc7fae3d6700815e71f063ffc9181900360200190a1565b6001818154811061023557fe5b60009182526020918290206002918202018054604080516001831615610100026000190190921693909304601f8101859004850282018501909352828152909350918391908301828280156102cb5780601f106102a0576101008083540402835291602001916102cb565b820191906000526020600020905b8154815290600101906020018083116102ae57829003601f168201915b5050505050908060010154905082565b60005461010090046001600160a01b031633146102f757600080fd5b60005460ff16151560011461030b57600080fd5b60015460051161031a57600080fd5b604080518082019091528181526000602080830182905260018054808201825592528251805160029093027fb10e2d527612073b26eecdfd717e6a320cf44b4afac2b0732d9fcbe2b7fa0cf601926103759284920190610594565b506020918201516001909101556040805182815283518184015283517ffe205e680ae4a254a0102de327d3c2b63168ae75f42f046f1fd775c3c866871b93859383929083019185019080838360005b838110156103dc5781810151838201526020016103c4565b50505050905090810190601f1680156104095780820380516001836020036101000a031916815260200191505b509250505060405180910390a150565b60005460ff16151560011461042d57600080fd5b600154811061043b57600080fd5b3360009081526002602052604090205460ff161561045857600080fd5b6001818154811061046557fe5b6000918252602080832060029283020160019081018054820190553384529190526040909120805460ff19168217905580547e8e3b27e09daa83ef4d239b211c458358c74c8ab4a844aa4ce24f2a4e211eeb9190839081106104c357fe5b9060005260206000209060020201600001600183815481106104e157fe5b90600052602060002090600202016001015460405180806020018381526020018281038252848181546001816001161561010002031660029004815260200191508054600181600116156101000203166002900480156105825780601f1061055757610100808354040283529160200191610582565b820191906000526020600020905b81548152906001019060200180831161056557829003601f168201915b5050935050505060405180910390a150565b828054600181600116156101000203166002900490600052602060002090601f016020900481019282601f106105d557805160ff1916838001178555610602565b82800160010185558215610602579182015b828111156106025782518255916020019190600101906105e7565b5061060e929150610612565b5090565b61062c91905b8082111561060e5760008155600101610618565b9056fea2646970667358221220a1fed1188edf59ad2f7aa6361cda2c7c9cf2496a95c352c8ad8fb1a38a6fa9d864736f6c63430006000033",
    "sourcePath": "c:/Users/seonj/Documents/GitHub/solidity/votingApp.sol",
    "compiler": {
        "name": "solc",
        "version": "0.6.0+commit.26b70077"
    },
    "functionHashes": {
        "addCandidator(string)": "cea50510",
        "candidatorList(uint256)": "b5433923",
        "finishVote()": "2aebcbb6",
        "upVote(uint256)": "ec859db5"
    },
    "gasEstimates": {
        "creation": {
            "codeDepositCost": "327400",
            "executionCost": "22333",
            "totalCost": "349733"
        },
        "external": {
            "addCandidator(string)": "infinite",
            "candidatorList(uint256)": "infinite",
            "finishVote()": "23683",
            "upVote(uint256)": "infinite"
        }
    }
}